{
  "contractName": "BigPurchase",
  "abi": [
    {
      "inputs": [],
      "payable": false,
      "stateMutability": "nonpayable",
      "type": "constructor"
    },
    {
      "anonymous": false,
      "inputs": [
        {
          "indexed": false,
          "internalType": "string",
          "name": "name",
          "type": "string"
        },
        {
          "indexed": false,
          "internalType": "uint256",
          "name": "amount",
          "type": "uint256"
        },
        {
          "indexed": false,
          "internalType": "uint256",
          "name": "price",
          "type": "uint256"
        },
        {
          "indexed": false,
          "internalType": "uint256",
          "name": "InvoiceNumber",
          "type": "uint256"
        }
      ],
      "name": "AwaitingPayment",
      "type": "event"
    },
    {
      "anonymous": false,
      "inputs": [
        {
          "indexed": false,
          "internalType": "string",
          "name": "name",
          "type": "string"
        },
        {
          "indexed": false,
          "internalType": "uint256",
          "name": "price",
          "type": "uint256"
        },
        {
          "indexed": false,
          "internalType": "uint256",
          "name": "amount",
          "type": "uint256"
        },
        {
          "indexed": false,
          "internalType": "uint256",
          "name": "treshold",
          "type": "uint256"
        }
      ],
      "name": "ProductAdded",
      "type": "event"
    },
    {
      "anonymous": false,
      "inputs": [
        {
          "indexed": false,
          "internalType": "string",
          "name": "name",
          "type": "string"
        }
      ],
      "name": "ProductRunOut",
      "type": "event"
    },
    {
      "constant": true,
      "inputs": [
        {
          "internalType": "uint256",
          "name": "",
          "type": "uint256"
        }
      ],
      "name": "Invoices",
      "outputs": [
        {
          "internalType": "contract Invoice",
          "name": "",
          "type": "address"
        }
      ],
      "payable": false,
      "stateMutability": "view",
      "type": "function"
    },
    {
      "constant": true,
      "inputs": [],
      "name": "InvoicesCount",
      "outputs": [
        {
          "internalType": "uint256",
          "name": "",
          "type": "uint256"
        }
      ],
      "payable": false,
      "stateMutability": "view",
      "type": "function"
    },
    {
      "constant": true,
      "inputs": [
        {
          "internalType": "bytes32",
          "name": "",
          "type": "bytes32"
        }
      ],
      "name": "ProductHashes",
      "outputs": [
        {
          "internalType": "uint256",
          "name": "",
          "type": "uint256"
        }
      ],
      "payable": false,
      "stateMutability": "view",
      "type": "function"
    },
    {
      "constant": true,
      "inputs": [
        {
          "internalType": "uint256",
          "name": "",
          "type": "uint256"
        }
      ],
      "name": "ProductStash",
      "outputs": [
        {
          "internalType": "uint256",
          "name": "Id",
          "type": "uint256"
        },
        {
          "internalType": "string",
          "name": "Name",
          "type": "string"
        },
        {
          "internalType": "uint256",
          "name": "Price",
          "type": "uint256"
        },
        {
          "internalType": "uint256",
          "name": "Amount",
          "type": "uint256"
        },
        {
          "internalType": "uint256",
          "name": "Treshold",
          "type": "uint256"
        }
      ],
      "payable": false,
      "stateMutability": "view",
      "type": "function"
    },
    {
      "constant": true,
      "inputs": [
        {
          "internalType": "uint256",
          "name": "",
          "type": "uint256"
        }
      ],
      "name": "Products",
      "outputs": [
        {
          "internalType": "uint256",
          "name": "Id",
          "type": "uint256"
        },
        {
          "internalType": "string",
          "name": "Name",
          "type": "string"
        },
        {
          "internalType": "uint256",
          "name": "Price",
          "type": "uint256"
        },
        {
          "internalType": "uint256",
          "name": "Amount",
          "type": "uint256"
        },
        {
          "internalType": "uint256",
          "name": "Treshold",
          "type": "uint256"
        }
      ],
      "payable": false,
      "stateMutability": "view",
      "type": "function"
    },
    {
      "constant": true,
      "inputs": [],
      "name": "ProductsCount",
      "outputs": [
        {
          "internalType": "uint256",
          "name": "",
          "type": "uint256"
        }
      ],
      "payable": false,
      "stateMutability": "view",
      "type": "function"
    },
    {
      "constant": false,
      "inputs": [
        {
          "internalType": "string",
          "name": "_name",
          "type": "string"
        },
        {
          "internalType": "uint256",
          "name": "_price",
          "type": "uint256"
        },
        {
          "internalType": "uint256",
          "name": "_amount",
          "type": "uint256"
        },
        {
          "internalType": "uint256",
          "name": "_treshold",
          "type": "uint256"
        }
      ],
      "name": "addProduct",
      "outputs": [],
      "payable": false,
      "stateMutability": "nonpayable",
      "type": "function"
    },
    {
      "constant": false,
      "inputs": [
        {
          "internalType": "uint256",
          "name": "ProductId",
          "type": "uint256"
        },
        {
          "internalType": "uint256",
          "name": "amount",
          "type": "uint256"
        }
      ],
      "name": "buyProduct",
      "outputs": [],
      "payable": false,
      "stateMutability": "nonpayable",
      "type": "function"
    },
    {
      "constant": false,
      "inputs": [
        {
          "internalType": "uint256",
          "name": "InvoiceNumber",
          "type": "uint256"
        },
        {
          "internalType": "bool",
          "name": "allPayed",
          "type": "bool"
        }
      ],
      "name": "finalizeInvoice",
      "outputs": [],
      "payable": false,
      "stateMutability": "nonpayable",
      "type": "function"
    },
    {
      "constant": true,
      "inputs": [
        {
          "internalType": "uint256",
          "name": "id",
          "type": "uint256"
        }
      ],
      "name": "GetProduct",
      "outputs": [
        {
          "internalType": "uint256",
          "name": "",
          "type": "uint256"
        },
        {
          "internalType": "string",
          "name": "",
          "type": "string"
        },
        {
          "internalType": "uint256",
          "name": "",
          "type": "uint256"
        },
        {
          "internalType": "uint256",
          "name": "",
          "type": "uint256"
        },
        {
          "internalType": "uint256",
          "name": "",
          "type": "uint256"
        }
      ],
      "payable": false,
      "stateMutability": "view",
      "type": "function"
    },
    {
      "constant": true,
      "inputs": [
        {
          "internalType": "uint256",
          "name": "id",
          "type": "uint256"
        }
      ],
      "name": "GetInvoiceAmount",
      "outputs": [
        {
          "internalType": "uint256",
          "name": "",
          "type": "uint256"
        }
      ],
      "payable": false,
      "stateMutability": "view",
      "type": "function"
    }
  ],
  "bytecode": "0x608060405234801561001057600080fd5b50336000806101000a81548173ffffffffffffffffffffffffffffffffffffffff021916908373ffffffffffffffffffffffffffffffffffffffff16021790555060006003819055506000600581905550612128806100706000396000f3fe60806040523480156200001157600080fd5b5060043610620000b85760003560e01c80635eea28e7116200007b5780635eea28e714620003055780635ef3fc6114620003425780638b1666a614620003b3578063d10876f414620003f8578063d2862bd81462000418578063dba3f6aa14620004e157620000b8565b8063094455c414620000bd57806326dd8d52146200019c5780633d718eb414620002655780634a65ad4814620002aa57806353b6286614620002ca575b600080fd5b6200019a60048036036080811015620000d557600080fd5b8101908080359060200190640100000000811115620000f357600080fd5b8201836020820111156200010657600080fd5b803590602001918460018302840111640100000000831117156200012957600080fd5b91908080601f016020809104026020016040519081016040528093929190818152602001838380828437600081840152601f19601f820116905080830192505050505050509192919290803590602001909291908035906020019092919080359060200190929190505050620005aa565b005b620001cb60048036036020811015620001b457600080fd5b810190808035906020019092919050505062000817565b6040518086815260200180602001858152602001848152602001838152602001828103825286818151815260200191508051906020019080838360005b838110156200022557808201518184015260208101905062000208565b50505050905090810190601f168015620002535780820380516001836020036101000a031916815260200191505b50965050505050505060405180910390f35b62000294600480360360208110156200027d57600080fd5b8101908080359060200190929190505050620008e9565b6040518082815260200191505060405180910390f35b620002b4620009a9565b6040518082815260200191505060405180910390f35b6200030360048036036040811015620002e257600080fd5b810190808035906020019092919080359060200190929190505050620009af565b005b62000340600480360360408110156200031d57600080fd5b810190808035906020019092919080351515906020019092919050505062000ef4565b005b62000371600480360360208110156200035a57600080fd5b810190808035906020019092919050505062001187565b604051808273ffffffffffffffffffffffffffffffffffffffff1673ffffffffffffffffffffffffffffffffffffffff16815260200191505060405180910390f35b620003e260048036036020811015620003cb57600080fd5b8101908080359060200190929190505050620011ba565b6040518082815260200191505060405180910390f35b62000402620011d2565b6040518082815260200191505060405180910390f35b62000447600480360360208110156200043057600080fd5b8101908080359060200190929190505050620011d8565b6040518086815260200180602001858152602001848152602001838152602001828103825286818151815260200191508051906020019080838360005b83811015620004a157808201518184015260208101905062000484565b50505050905090810190601f168015620004cf5780820380516001836020036101000a031916815260200191505b50965050505050505060405180910390f35b6200051060048036036020811015620004f957600080fd5b810190808035906020019092919050505062001306565b6040518086815260200180602001858152602001848152602001838152602001828103825286818151815260200191508051906020019080838360005b838110156200056a5780820151818401526020810190506200054d565b50505050905090810190601f168015620005985780820380516001836020036101000a031916815260200191505b50965050505050505060405180910390f35b6000809054906101000a900473ffffffffffffffffffffffffffffffffffffffff1673ffffffffffffffffffffffffffffffffffffffff163373ffffffffffffffffffffffffffffffffffffffff16146200060457600080fd5b60008451118015620006165750600083115b8015620006235750600082115b6200062d57600080fd5b60006200063c858584620013d8565b90506000600260008381526020019081526020016000205414156200072157620006736001600354620014a790919063ffffffff16565b60038190555060035460026000838152602001908152602001600020819055506040518060a00160405280600354815260200186815260200185815260200184815260200183815250600160006003548152602001908152602001600020600082015181600001556020820151816001019080519060200190620006f9929190620017e2565b5060408201518160020155606082015181600301556080820151816004015590505062000759565b826001600060026000858152602001908152602001600020548152602001908152602001600020600301600082825401925050819055505b7f9ddd3dd44e5393e7babcc1912d120d2d687d9b6402bce4423d9b050281b4f365858585856040518080602001858152602001848152602001838152602001828103825286818151815260200191508051906020019080838360005b83811015620007d2578082015181840152602081019050620007b5565b50505050905090810190601f168015620008005780820380516001836020036101000a031916815260200191505b509550505050505060405180910390a15050505050565b6006602052806000526040600020600091509050806000015490806001018054600181600116156101000203166002900480601f016020809104026020016040519081016040528092919081815260200182805460018160011615610100020316600290048015620008cd5780601f10620008a157610100808354040283529160200191620008cd565b820191906000526020600020905b815481529060010190602001808311620008af57829003601f168201915b5050505050908060020154908060030154908060040154905085565b60006004600083815260200190815260200160002060009054906101000a900473ffffffffffffffffffffffffffffffffffffffff1673ffffffffffffffffffffffffffffffffffffffff1663bf071a4b6040518163ffffffff1660e01b815260040160206040518083038186803b1580156200096557600080fd5b505afa1580156200097a573d6000803e3d6000fd5b505050506040513d60208110156200099157600080fd5b81019080805190602001909291905050509050919050565b60055481565b600354821115620009bf57600080fd5b620009c962001869565b600160008481526020019081526020016000206040518060a001604052908160008201548152602001600182018054600181600116156101000203166002900480601f01602080910402602001604051908101604052809291908181526020018280546001816001161561010002031660029004801562000a8e5780601f1062000a625761010080835404028352916020019162000a8e565b820191906000526020600020905b81548152906001019060200180831162000a7057829003601f168201915b5050505050815260200160028201548152602001600382015481526020016004820154815250509050806060015182111562000ac957600080fd5b60008160800151831015801562000ae557506000826080015114155b1562000b365762000b2e606462000b1f62000b0b605f876200153090919063ffffffff16565b85604001516200153090919063ffffffff16565b620015bb90919063ffffffff16565b905062000b52565b62000b4f8383604001516200153090919063ffffffff16565b90505b828260600151141562000c50576001600085815260200190815260200160002060008082016000905560018201600062000b8d919062001898565b60028201600090556003820160009055600482016000905550507fe14bc0b8e47c217f9c12a0c4e4412be5ccf5e1960013637365f2f4a381d16f3c82602001516040518080602001828103825283818151815260200191508051906020019080838360005b8381101562000c0f57808201518184015260208101905062000bf2565b50505050905090810190601f16801562000c3d5780820380516001836020036101000a031916815260200191505b509250505060405180910390a162000c96565b62000c7b8360016000878152602001908152602001600020600301546200160790919063ffffffff16565b60016000868152602001908152602001600020600301819055505b62000cae6001600554620014a790919063ffffffff16565b60058190555080600554336000809054906101000a900473ffffffffffffffffffffffffffffffffffffffff1660405162000ce990620018e4565b808581526020018481526020018373ffffffffffffffffffffffffffffffffffffffff1673ffffffffffffffffffffffffffffffffffffffff1681526020018273ffffffffffffffffffffffffffffffffffffffff1673ffffffffffffffffffffffffffffffffffffffff168152602001945050505050604051809103906000f08015801562000d7d573d6000803e3d6000fd5b5060046000600554815260200190815260200160002060006101000a81548173ffffffffffffffffffffffffffffffffffffffff021916908373ffffffffffffffffffffffffffffffffffffffff1602179055508160066000600554815260200190815260200160002060008201518160000155602082015181600101908051906020019062000e0f929190620017e2565b506040820151816002015560608201518160030155608082015181600401559050507f064b142f50d5fc70b08210372fc5114d1124eff1f92ae312c4b22d176853c74f826020015184836005546040518080602001858152602001848152602001838152602001828103825286818151815260200191508051906020019080838360005b8381101562000eb057808201518184015260208101905062000e93565b50505050905090810190601f16801562000ede5780820380516001836020036101000a031916815260200191505b509550505050505060405180910390a150505050565b816004600082815260200190815260200160002060009054906101000a900473ffffffffffffffffffffffffffffffffffffffff1673ffffffffffffffffffffffffffffffffffffffff163373ffffffffffffffffffffffffffffffffffffffff161462000f6157600080fd5b811562000fec576004600084815260200190815260200160002060006101000a81549073ffffffffffffffffffffffffffffffffffffffff02191690556006600084815260200190815260200160002060008082016000905560018201600062000fcc919062001898565b600282016000905560038201600090556004820160009055505062001182565b62000ff662001869565b600660008581526020019081526020016000206040518060a001604052908160008201548152602001600182018054600181600116156101000203166002900480601f016020809104026020016040519081016040528092919081815260200182805460018160011615610100020316600290048015620010bb5780601f106200108f57610100808354040283529160200191620010bb565b820191906000526020600020905b8154815290600101906020018083116200109d57829003601f168201915b5050505050815260200160028201548152602001600382015481526020016004820154815250509050620011028160200151826040015183606001518460800151620005aa565b6004600085815260200190815260200160002060006101000a81549073ffffffffffffffffffffffffffffffffffffffff02191690556006600085815260200190815260200160002060008082016000905560018201600062001166919062001898565b6002820160009055600382016000905560048201600090555050505b505050565b60046020528060005260406000206000915054906101000a900473ffffffffffffffffffffffffffffffffffffffff1681565b60026020528060005260406000206000915090505481565b60035481565b6000606060008060006001600087815260200190815260200160002060000154600160008881526020019081526020016000206001016001600089815260200190815260200160002060020154600160008a815260200190815260200160002060030154600160008b815260200190815260200160002060040154838054600181600116156101000203166002900480601f016020809104026020016040519081016040528092919081815260200182805460018160011615610100020316600290048015620012ec5780601f10620012c057610100808354040283529160200191620012ec565b820191906000526020600020905b815481529060010190602001808311620012ce57829003601f168201915b505050505093509450945094509450945091939590929450565b6001602052806000526040600020600091509050806000015490806001018054600181600116156101000203166002900480601f016020809104026020016040519081016040528092919081815260200182805460018160011615610100020316600290048015620013bc5780601f106200139057610100808354040283529160200191620013bc565b820191906000526020600020905b8154815290600101906020018083116200139e57829003601f168201915b5050505050908060020154908060030154908060040154905085565b6000816040516020018082815260200191505060405160208183030381529060405280519060200120836040516020018082815260200191505060405160208183030381529060405280519060200120856040516020018082805190602001908083835b602083106200146157805182526020820191506020810190506020830392506200143c565b6001836020036101000a03801982511681845116808217855250505050505090500191505060405160208183030381529060405280519060200120181890509392505050565b60008082840190508381101562001526576040517f08c379a000000000000000000000000000000000000000000000000000000000815260040180806020018281038252601b8152602001807f536166654d6174683a206164646974696f6e206f766572666c6f77000000000081525060200191505060405180910390fd5b8091505092915050565b600080831415620015455760009050620015b5565b60008284029050828482816200155757fe5b0414620015b0576040517f08c379a0000000000000000000000000000000000000000000000000000000008152600401808060200182810382526021815260200180620020d36021913960400191505060405180910390fd5b809150505b92915050565b6000620015ff83836040518060400160405280601a81526020017f536166654d6174683a206469766973696f6e206279207a65726f00000000000081525062001653565b905092915050565b60006200164b83836040518060400160405280601e81526020017f536166654d6174683a207375627472616374696f6e206f766572666c6f7700008152506200171e565b905092915050565b6000808311829062001703576040517f08c379a00000000000000000000000000000000000000000000000000000000081526004018080602001828103825283818151815260200191508051906020019080838360005b83811015620016c7578082015181840152602081019050620016aa565b50505050905090810190601f168015620016f55780820380516001836020036101000a031916815260200191505b509250505060405180910390fd5b5060008385816200171057fe5b049050809150509392505050565b6000838311158290620017cf576040517f08c379a00000000000000000000000000000000000000000000000000000000081526004018080602001828103825283818151815260200191508051906020019080838360005b838110156200179357808201518184015260208101905062001776565b50505050905090810190601f168015620017c15780820380516001836020036101000a031916815260200191505b509250505060405180910390fd5b5060008385039050809150509392505050565b828054600181600116156101000203166002900490600052602060002090601f016020900481019282601f106200182557805160ff191683800117855562001856565b8280016001018555821562001856579182015b828111156200185557825182559160200191906001019062001838565b5b509050620018659190620018f2565b5090565b6040518060a0016040528060008152602001606081526020016000815260200160008152602001600081525090565b50805460018160011615610100020316600290046000825580601f10620018c05750620018e1565b601f016020900490600052602060002090810190620018e09190620018f2565b5b50565b6107b8806200191b83390190565b6200191791905b8082111562001913576000816000905550600101620018f9565b5090565b9056fe608060405234801561001057600080fd5b506040516107b83803806107b88339818101604052608081101561003357600080fd5b810190808051906020019092919080519060200190929190805190602001909291908051906020019092919050505061007c620151804261015c60201b6104531790919060201c565b600281905550836000819055508260068190555081600360006101000a81548173ffffffffffffffffffffffffffffffffffffffff021916908373ffffffffffffffffffffffffffffffffffffffff16021790555080600560006101000a81548173ffffffffffffffffffffffffffffffffffffffff021916908373ffffffffffffffffffffffffffffffffffffffff16021790555080600460006101000a81548173ffffffffffffffffffffffffffffffffffffffff021916908373ffffffffffffffffffffffffffffffffffffffff160217905550505050506101e4565b6000808284019050838110156101da576040517f08c379a000000000000000000000000000000000000000000000000000000000815260040180806020018281038252601b8152602001807f536166654d6174683a206164646974696f6e206f766572666c6f77000000000081525060200191505060405180910390fd5b8091505092915050565b6105c5806101f36000396000f3fe6080604052600436106100555760003560e01c806312065fe01461005a5780634bb278f3146100855780634e69d5601461009c5780637478901d146100d5578063bf071a4b14610100578063dacefe3a1461012b575b600080fd5b34801561006657600080fd5b5061006f610135565b6040518082815260200191505060405180910390f35b34801561009157600080fd5b5061009a61013d565b005b3480156100a857600080fd5b506100b16102c3565b604051808260028111156100c157fe5b60ff16815260200191505060405180910390f35b3480156100e157600080fd5b506100ea6102df565b6040518082815260200191505060405180910390f35b34801561010c57600080fd5b506101156102e5565b6040518082815260200191505060405180910390f35b6101336102ee565b005b600047905090565b600560009054906101000a900473ffffffffffffffffffffffffffffffffffffffff1673ffffffffffffffffffffffffffffffffffffffff16635eea28e7600654600760009054906101000a900460ff166040518363ffffffff1660e01b8152600401808381526020018215151515815260200192505050600060405180830381600087803b1580156101cf57600080fd5b505af11580156101e3573d6000803e3d6000fd5b50505050600760009054906101000a900460ff1615610244577f55e6e0ad23f3915f7dd551eed73e71e0e84fa3655f207c4b064fc0166b93cf0a600654600154604051808381526020018281526020019250505060405180910390a1610288565b7f6eaf533c5e2ee08d718e11123241f0f8cefffa2eb14648e28217dffaed4d7ec0600654600154604051808381526020018281526020019250505060405180910390a15b600460009054906101000a900473ffffffffffffffffffffffffffffffffffffffff1673ffffffffffffffffffffffffffffffffffffffff16ff5b60006002544211156102d8576102d761013d565b5b6000905090565b60005481565b60008054905090565b600360009054906101000a900473ffffffffffffffffffffffffffffffffffffffff1673ffffffffffffffffffffffffffffffffffffffff163373ffffffffffffffffffffffffffffffffffffffff161461034857600080fd5b6000600281111561035557fe5b61035d6102c3565b600281111561036857fe5b1461037257600080fd5b60006103893460015461045390919063ffffffff16565b905060005481106103dd576000548111156103ac576103ab60005482036104db565b5b6000546001819055506001600760006101000a81548160ff0219169083151502179055506103d861013d565b6103e5565b806001819055505b7fd4f43975feb89f48dd30cabbb32011045be187d1e11c8ea9faa43efc352825193334604051808373ffffffffffffffffffffffffffffffffffffffff1673ffffffffffffffffffffffffffffffffffffffff1681526020018281526020019250505060405180910390a150565b6000808284019050838110156104d1576040517f08c379a000000000000000000000000000000000000000000000000000000000815260040180806020018281038252601b8152602001807f536166654d6174683a206164646974696f6e206f766572666c6f77000000000081525060200191505060405180910390fd5b8091505092915050565b3373ffffffffffffffffffffffffffffffffffffffff166108fc829081150290604051600060405180830381858888f19350505050158015610521573d6000803e3d6000fd5b507fbb28353e4598c3b9199101a66e0989549b659a59a54d2c27fbb183f1932c8e6d3382604051808373ffffffffffffffffffffffffffffffffffffffff1673ffffffffffffffffffffffffffffffffffffffff1681526020018281526020019250505060405180910390a15056fea265627a7a72315820f8010daf68c5cc32fb24b76d7fa553132e74122f9e9a0c33ec03cb9564c4e00964736f6c63430005100032536166654d6174683a206d756c7469706c69636174696f6e206f766572666c6f77a265627a7a72315820391d7a8b3e06681215f085cf430e06efc03f5dba47b40a1d8edfd03998d11bb064736f6c63430005100032",
  "source": "pragma solidity < 0.8.0;\n\nimport \"./Libs/SafeMath.sol\";\nimport \"./Invoice.sol\";\ncontract BigPurchase{\n\n    using SafeMath for uint256;\n\n    event ProductAdded(string name, uint price, uint amount, uint treshold);\n    event AwaitingPayment(string name, uint amount, uint price, uint InvoiceNumber);\n    event ProductRunOut(string name);\n\n    struct Product{\n        uint Id;\n        string Name;\n        uint Price;\n        uint Amount;\n        uint Treshold;      //the quantity of the product, upon purchase of which the discount will be provided\n    }\n\n    address payable owner;\n\n    //list of Products, and list of their hashes\n    mapping(uint => Product) public Products;\n    mapping(bytes32 => uint) public ProductHashes;    \n    uint public ProductsCount;\n\n    mapping(uint => Invoice) public Invoices;\n    uint public InvoicesCount;\n\n    mapping(uint => Product) public ProductStash;   //we stash here products which was bought, but not payed yet\n\n    modifier OnlyOwner(){\n        require(msg.sender == owner);\n        _;\n    }\n    modifier OnlyOwnedInvoices(uint InvoiceNumber){\n        require(msg.sender == address(Invoices[InvoiceNumber]));\n        _;\n    }\n\n\n\n    constructor() public {\n        owner = msg.sender;\n        ProductsCount = 0;\n        InvoicesCount = 0;\n    }\n\n    function getHashedProduct(string memory _name, uint _price, uint _treshold) internal pure returns (bytes32){\n        return  keccak256(abi.encodePacked(_name))^\n                keccak256(abi.encodePacked(_price))^\n                keccak256(abi.encodePacked(_treshold));\n    }\n\n    function addProduct(string memory _name, uint _price, uint _amount, uint _treshold) public OnlyOwner {\n\n        require((bytes(_name).length > 0) && (_price > 0) && _amount > 0);\n        bytes32 hashedProduct = getHashedProduct(_name, _price, _treshold);\n\n        //if we have its hash in mapping, we get number of this product. If we dont, we add product hash to mapping, and create new product position.\n        if(ProductHashes[hashedProduct] == 0){\n            ProductsCount = ProductsCount.add(1);\n            ProductHashes[hashedProduct] = ProductsCount;\n            Products[ProductsCount] = Product(ProductsCount, _name, _price, _amount, _treshold);\n        } else {\n            Products[ProductHashes[hashedProduct]].Amount += _amount;   \n        }\n\n        emit ProductAdded(_name, _price, _amount, _treshold);\n    }\n\n    function buyProduct(uint ProductId, uint amount) public {\n        \n        require(ProductId <= ProductsCount);                        //checking if we gave right id of product\n        Product memory toBuy = Products[ProductId];\n        require(amount <= toBuy.Amount);                            //and if we have enough product\n              \n        uint TotalPrice;\n\n        if ((amount >= toBuy.Treshold) && (toBuy.Treshold != 0)){ \n            TotalPrice = (toBuy.Price.mul((amount.mul(95)))).div(100);         //making 5% discount, if purchase big enough\n        } else {\n            TotalPrice = toBuy.Price.mul(amount);\n        }\n\n        if(toBuy.Amount == amount){                                 //if all of supplied product was bought \n            delete(Products[ProductId]);\n            emit ProductRunOut(toBuy.Name);                          //later implement shifting id of elements, so there will be no gaps in mapping\n        } else {\n            Products[ProductId].Amount = Products[ProductId].Amount.sub(amount);\n        }\n        \n        InvoicesCount = InvoicesCount.add(1);                         //creating new invoice for customer to pay\n        Invoices[InvoicesCount] = new Invoice(TotalPrice, InvoicesCount, msg.sender, owner);\n        ProductStash[InvoicesCount] = toBuy;\n\n        emit AwaitingPayment(toBuy.Name, amount, TotalPrice, InvoicesCount);\n    } \n\n    function finalizeInvoice(uint InvoiceNumber, bool allPayed) \n    public \n    OnlyOwnedInvoices(InvoiceNumber)                    //this function called only from created invoices \n    {\n        if(allPayed){                                   //Invoice payed, remove product from stash, closing deal   \n            delete(Invoices[InvoiceNumber]);\n            delete(ProductStash[InvoiceNumber]);     \n        } else {                                        //Invoice was not payed, we return product back on market\n            Product memory toReturn = ProductStash[InvoiceNumber];\n            addProduct(toReturn.Name, toReturn.Price, toReturn.Amount, toReturn.Treshold);\n            \n            delete(Invoices[InvoiceNumber]);\n            delete(ProductStash[InvoiceNumber]);\n        }\n    }\n\n    //Kostyl section\n    //thing is, as i understand, we cant access structures from another contract, as theyre not declared there. So we will get info from main contract. \n    //On deploy, this functions shall be deleted\n    function GetProduct(uint id) public view  returns (uint, string memory, uint, uint, uint){\n        return(Products[id].Id, Products[id].Name, Products[id].Price, Products[id].Amount,  Products[id].Treshold );\n    }\n    function GetInvoiceAmount(uint id) public view returns (uint256){\n        return Invoices[id].GetInvoiceAmount();\n    }\n}",
  "sourcePath": "/home/alexey/Repos/BigPurchase/contracts/BigPurchase.sol",
  "compiler": {
    "name": "solc",
    "version": "0.5.16+commit.9c3226ce.Emscripten.clang"
  },
  "schemaVersion": "3.3.2",
  "updatedAt": "2021-01-09T18:53:27.278Z",
  "networkType": "ethereum",
  "devdoc": {
    "methods": {}
  },
  "userdoc": {
    "methods": {}
  }
}