{
  "contractName": "BigPurchase",
  "abi": [
    {
      "inputs": [],
      "payable": false,
      "stateMutability": "nonpayable",
      "type": "constructor"
    },
    {
      "anonymous": false,
      "inputs": [
        {
          "indexed": false,
          "internalType": "string",
          "name": "name",
          "type": "string"
        },
        {
          "indexed": false,
          "internalType": "uint256",
          "name": "amount",
          "type": "uint256"
        },
        {
          "indexed": false,
          "internalType": "uint256",
          "name": "price",
          "type": "uint256"
        },
        {
          "indexed": false,
          "internalType": "uint256",
          "name": "InvoiceNumber",
          "type": "uint256"
        }
      ],
      "name": "AwaitingPayment",
      "type": "event"
    },
    {
      "anonymous": false,
      "inputs": [
        {
          "indexed": false,
          "internalType": "string",
          "name": "name",
          "type": "string"
        },
        {
          "indexed": false,
          "internalType": "uint256",
          "name": "price",
          "type": "uint256"
        },
        {
          "indexed": false,
          "internalType": "uint256",
          "name": "amount",
          "type": "uint256"
        },
        {
          "indexed": false,
          "internalType": "uint256",
          "name": "treshold",
          "type": "uint256"
        }
      ],
      "name": "ProductAdded",
      "type": "event"
    },
    {
      "anonymous": false,
      "inputs": [
        {
          "indexed": false,
          "internalType": "string",
          "name": "name",
          "type": "string"
        }
      ],
      "name": "ProductRunOut",
      "type": "event"
    },
    {
      "constant": true,
      "inputs": [
        {
          "internalType": "uint256",
          "name": "",
          "type": "uint256"
        }
      ],
      "name": "Invoices",
      "outputs": [
        {
          "internalType": "contract Invoice",
          "name": "",
          "type": "address"
        }
      ],
      "payable": false,
      "stateMutability": "view",
      "type": "function"
    },
    {
      "constant": true,
      "inputs": [],
      "name": "InvoicesCount",
      "outputs": [
        {
          "internalType": "uint256",
          "name": "",
          "type": "uint256"
        }
      ],
      "payable": false,
      "stateMutability": "view",
      "type": "function"
    },
    {
      "constant": true,
      "inputs": [
        {
          "internalType": "bytes32",
          "name": "",
          "type": "bytes32"
        }
      ],
      "name": "ProductHashes",
      "outputs": [
        {
          "internalType": "uint256",
          "name": "",
          "type": "uint256"
        }
      ],
      "payable": false,
      "stateMutability": "view",
      "type": "function"
    },
    {
      "constant": true,
      "inputs": [
        {
          "internalType": "uint256",
          "name": "",
          "type": "uint256"
        }
      ],
      "name": "ProductStash",
      "outputs": [
        {
          "internalType": "uint256",
          "name": "Id",
          "type": "uint256"
        },
        {
          "internalType": "string",
          "name": "Name",
          "type": "string"
        },
        {
          "internalType": "uint256",
          "name": "Price",
          "type": "uint256"
        },
        {
          "internalType": "uint256",
          "name": "Amount",
          "type": "uint256"
        },
        {
          "internalType": "uint256",
          "name": "Treshold",
          "type": "uint256"
        }
      ],
      "payable": false,
      "stateMutability": "view",
      "type": "function"
    },
    {
      "constant": true,
      "inputs": [
        {
          "internalType": "uint256",
          "name": "",
          "type": "uint256"
        }
      ],
      "name": "Products",
      "outputs": [
        {
          "internalType": "uint256",
          "name": "Id",
          "type": "uint256"
        },
        {
          "internalType": "string",
          "name": "Name",
          "type": "string"
        },
        {
          "internalType": "uint256",
          "name": "Price",
          "type": "uint256"
        },
        {
          "internalType": "uint256",
          "name": "Amount",
          "type": "uint256"
        },
        {
          "internalType": "uint256",
          "name": "Treshold",
          "type": "uint256"
        }
      ],
      "payable": false,
      "stateMutability": "view",
      "type": "function"
    },
    {
      "constant": true,
      "inputs": [],
      "name": "ProductsCount",
      "outputs": [
        {
          "internalType": "uint256",
          "name": "",
          "type": "uint256"
        }
      ],
      "payable": false,
      "stateMutability": "view",
      "type": "function"
    },
    {
      "constant": false,
      "inputs": [
        {
          "internalType": "string",
          "name": "_name",
          "type": "string"
        },
        {
          "internalType": "uint256",
          "name": "_price",
          "type": "uint256"
        },
        {
          "internalType": "uint256",
          "name": "_amount",
          "type": "uint256"
        },
        {
          "internalType": "uint256",
          "name": "_treshold",
          "type": "uint256"
        }
      ],
      "name": "addProduct",
      "outputs": [],
      "payable": false,
      "stateMutability": "nonpayable",
      "type": "function"
    },
    {
      "constant": false,
      "inputs": [
        {
          "internalType": "uint256",
          "name": "ProductId",
          "type": "uint256"
        },
        {
          "internalType": "uint256",
          "name": "amount",
          "type": "uint256"
        }
      ],
      "name": "buyProduct",
      "outputs": [],
      "payable": false,
      "stateMutability": "nonpayable",
      "type": "function"
    },
    {
      "constant": false,
      "inputs": [
        {
          "internalType": "uint256",
          "name": "InvoiceNumber",
          "type": "uint256"
        },
        {
          "internalType": "bool",
          "name": "allPayed",
          "type": "bool"
        }
      ],
      "name": "finalizeInvoice",
      "outputs": [],
      "payable": false,
      "stateMutability": "nonpayable",
      "type": "function"
    }
  ],
  "bytecode": "0x608060405234801561001057600080fd5b50336000806101000a81548173ffffffffffffffffffffffffffffffffffffffff021916908373ffffffffffffffffffffffffffffffffffffffff160217905550611d73806100606000396000f3fe60806040523480156200001157600080fd5b5060043610620000a05760003560e01c80635eea28e7116200006f5780635eea28e714620002a85780635ef3fc6114620002e55780638b1666a61462000356578063d10876f4146200039b578063dba3f6aa14620003bb57620000a0565b8063094455c414620000a557806326dd8d5214620001845780634a65ad48146200024d57806353b62866146200026d575b600080fd5b6200018260048036036080811015620000bd57600080fd5b8101908080359060200190640100000000811115620000db57600080fd5b820183602082011115620000ee57600080fd5b803590602001918460018302840111640100000000831117156200011157600080fd5b91908080601f016020809104026020016040519081016040528093929190818152602001838380828437600081840152601f19601f82011690508083019250505050505050919291929080359060200190929190803590602001909291908035906020019092919050505062000484565b005b620001b3600480360360208110156200019c57600080fd5b8101908080359060200190929190505050620006f1565b6040518086815260200180602001858152602001848152602001838152602001828103825286818151815260200191508051906020019080838360005b838110156200020d578082015181840152602081019050620001f0565b50505050905090810190601f1680156200023b5780820380516001836020036101000a031916815260200191505b50965050505050505060405180910390f35b62000257620007c3565b6040518082815260200191505060405180910390f35b620002a6600480360360408110156200028557600080fd5b810190808035906020019092919080359060200190929190505050620007c9565b005b620002e360048036036040811015620002c057600080fd5b810190808035906020019092919080351515906020019092919050505062000ce8565b005b6200031460048036036020811015620002fd57600080fd5b810190808035906020019092919050505062000f7b565b604051808273ffffffffffffffffffffffffffffffffffffffff1673ffffffffffffffffffffffffffffffffffffffff16815260200191505060405180910390f35b62000385600480360360208110156200036e57600080fd5b810190808035906020019092919050505062000fae565b6040518082815260200191505060405180910390f35b620003a562000fc6565b6040518082815260200191505060405180910390f35b620003ea60048036036020811015620003d357600080fd5b810190808035906020019092919050505062000fcc565b6040518086815260200180602001858152602001848152602001838152602001828103825286818151815260200191508051906020019080838360005b838110156200044457808201518184015260208101905062000427565b50505050905090810190601f168015620004725780820380516001836020036101000a031916815260200191505b50965050505050505060405180910390f35b6000809054906101000a900473ffffffffffffffffffffffffffffffffffffffff1673ffffffffffffffffffffffffffffffffffffffff163373ffffffffffffffffffffffffffffffffffffffff1614620004de57600080fd5b60008451118015620004f05750600083115b8015620004fd5750600082115b6200050757600080fd5b6000620005168585846200109e565b9050600060026000838152602001908152602001600020541415620005fb576200054d60016003546200116d90919063ffffffff16565b60038190555060035460026000838152602001908152602001600020819055506040518060a00160405280600354815260200186815260200185815260200184815260200183815250600160006003548152602001908152602001600020600082015181600001556020820151816001019080519060200190620005d3929190620014a8565b5060408201518160020155606082015181600301556080820151816004015590505062000633565b826001600060026000858152602001908152602001600020548152602001908152602001600020600301600082825401925050819055505b7f9ddd3dd44e5393e7babcc1912d120d2d687d9b6402bce4423d9b050281b4f365858585856040518080602001858152602001848152602001838152602001828103825286818151815260200191508051906020019080838360005b83811015620006ac5780820151818401526020810190506200068f565b50505050905090810190601f168015620006da5780820380516001836020036101000a031916815260200191505b509550505050505060405180910390a15050505050565b6006602052806000526040600020600091509050806000015490806001018054600181600116156101000203166002900480601f016020809104026020016040519081016040528092919081815260200182805460018160011615610100020316600290048015620007a75780601f106200077b57610100808354040283529160200191620007a7565b820191906000526020600020905b8154815290600101906020018083116200078957829003601f168201915b5050505050908060020154908060030154908060040154905085565b60055481565b600354821115620007d957600080fd5b620007e36200152f565b600160008481526020019081526020016000206040518060a001604052908160008201548152602001600182018054600181600116156101000203166002900480601f016020809104026020016040519081016040528092919081815260200182805460018160011615610100020316600290048015620008a85780601f106200087c57610100808354040283529160200191620008a8565b820191906000526020600020905b8154815290600101906020018083116200088a57829003601f168201915b50505050508152602001600282015481526020016003820154815260200160048201548152505090508060600151821115620008e357600080fd5b600081608001518310158015620008ff57506000826080015114155b1562000950576200094860646200093962000925605f87620011f690919063ffffffff16565b8560400151620011f690919063ffffffff16565b6200128190919063ffffffff16565b90506200096c565b62000969838360400151620011f690919063ffffffff16565b90505b828260600151141562000a6a5760016000858152602001908152602001600020600080820160009055600182016000620009a791906200155e565b60028201600090556003820160009055600482016000905550507fe14bc0b8e47c217f9c12a0c4e4412be5ccf5e1960013637365f2f4a381d16f3c82602001516040518080602001828103825283818151815260200191508051906020019080838360005b8381101562000a2957808201518184015260208101905062000a0c565b50505050905090810190601f16801562000a575780820380516001836020036101000a031916815260200191505b509250505060405180910390a162000ab0565b62000a95836001600087815260200190815260200160002060030154620012cd90919063ffffffff16565b60016000868152602001908152602001600020600301819055505b62000ac860016005546200116d90919063ffffffff16565b5080600554333060405162000add90620015aa565b808581526020018481526020018373ffffffffffffffffffffffffffffffffffffffff1673ffffffffffffffffffffffffffffffffffffffff1681526020018273ffffffffffffffffffffffffffffffffffffffff1673ffffffffffffffffffffffffffffffffffffffff168152602001945050505050604051809103906000f08015801562000b71573d6000803e3d6000fd5b5060046000600554815260200190815260200160002060006101000a81548173ffffffffffffffffffffffffffffffffffffffff021916908373ffffffffffffffffffffffffffffffffffffffff1602179055508160066000600554815260200190815260200160002060008201518160000155602082015181600101908051906020019062000c03929190620014a8565b506040820151816002015560608201518160030155608082015181600401559050507f064b142f50d5fc70b08210372fc5114d1124eff1f92ae312c4b22d176853c74f826020015184836005546040518080602001858152602001848152602001838152602001828103825286818151815260200191508051906020019080838360005b8381101562000ca457808201518184015260208101905062000c87565b50505050905090810190601f16801562000cd25780820380516001836020036101000a031916815260200191505b509550505050505060405180910390a150505050565b816004600082815260200190815260200160002060009054906101000a900473ffffffffffffffffffffffffffffffffffffffff1673ffffffffffffffffffffffffffffffffffffffff163373ffffffffffffffffffffffffffffffffffffffff161462000d5557600080fd5b811562000de0576004600084815260200190815260200160002060006101000a81549073ffffffffffffffffffffffffffffffffffffffff02191690556006600084815260200190815260200160002060008082016000905560018201600062000dc091906200155e565b600282016000905560038201600090556004820160009055505062000f76565b62000dea6200152f565b600660008581526020019081526020016000206040518060a001604052908160008201548152602001600182018054600181600116156101000203166002900480601f01602080910402602001604051908101604052809291908181526020018280546001816001161561010002031660029004801562000eaf5780601f1062000e835761010080835404028352916020019162000eaf565b820191906000526020600020905b81548152906001019060200180831162000e9157829003601f168201915b505050505081526020016002820154815260200160038201548152602001600482015481525050905062000ef6816020015182604001518360600151846080015162000484565b6004600085815260200190815260200160002060006101000a81549073ffffffffffffffffffffffffffffffffffffffff02191690556006600085815260200190815260200160002060008082016000905560018201600062000f5a91906200155e565b6002820160009055600382016000905560048201600090555050505b505050565b60046020528060005260406000206000915054906101000a900473ffffffffffffffffffffffffffffffffffffffff1681565b60026020528060005260406000206000915090505481565b60035481565b6001602052806000526040600020600091509050806000015490806001018054600181600116156101000203166002900480601f016020809104026020016040519081016040528092919081815260200182805460018160011615610100020316600290048015620010825780601f10620010565761010080835404028352916020019162001082565b820191906000526020600020905b8154815290600101906020018083116200106457829003601f168201915b5050505050908060020154908060030154908060040154905085565b6000816040516020018082815260200191505060405160208183030381529060405280519060200120836040516020018082815260200191505060405160208183030381529060405280519060200120856040516020018082805190602001908083835b6020831062001127578051825260208201915060208101905060208303925062001102565b6001836020036101000a03801982511681845116808217855250505050505090500191505060405160208183030381529060405280519060200120181890509392505050565b600080828401905083811015620011ec576040517f08c379a000000000000000000000000000000000000000000000000000000000815260040180806020018281038252601b8152602001807f536166654d6174683a206164646974696f6e206f766572666c6f77000000000081525060200191505060405180910390fd5b8091505092915050565b6000808314156200120b57600090506200127b565b60008284029050828482816200121d57fe5b041462001276576040517f08c379a000000000000000000000000000000000000000000000000000000000815260040180806020018281038252602181526020018062001d1e6021913960400191505060405180910390fd5b809150505b92915050565b6000620012c583836040518060400160405280601a81526020017f536166654d6174683a206469766973696f6e206279207a65726f00000000000081525062001319565b905092915050565b60006200131183836040518060400160405280601e81526020017f536166654d6174683a207375627472616374696f6e206f766572666c6f770000815250620013e4565b905092915050565b60008083118290620013c9576040517f08c379a00000000000000000000000000000000000000000000000000000000081526004018080602001828103825283818151815260200191508051906020019080838360005b838110156200138d57808201518184015260208101905062001370565b50505050905090810190601f168015620013bb5780820380516001836020036101000a031916815260200191505b509250505060405180910390fd5b506000838581620013d657fe5b049050809150509392505050565b600083831115829062001495576040517f08c379a00000000000000000000000000000000000000000000000000000000081526004018080602001828103825283818151815260200191508051906020019080838360005b83811015620014595780820151818401526020810190506200143c565b50505050905090810190601f168015620014875780820380516001836020036101000a031916815260200191505b509250505060405180910390fd5b5060008385039050809150509392505050565b828054600181600116156101000203166002900490600052602060002090601f016020900481019282601f10620014eb57805160ff19168380011785556200151c565b828001600101855582156200151c579182015b828111156200151b578251825591602001919060010190620014fe565b5b5090506200152b9190620015b8565b5090565b6040518060a0016040528060008152602001606081526020016000815260200160008152602001600081525090565b50805460018160011615610100020316600290046000825580601f10620015865750620015a7565b601f016020900490600052602060002090810190620015a69190620015b8565b5b50565b61073d80620015e183390190565b620015dd91905b80821115620015d9576000816000905550600101620015bf565b5090565b9056fe608060405234801561001057600080fd5b5060405161073d38038061073d8339818101604052608081101561003357600080fd5b810190808051906020019092919080519060200190929190805190602001909291908051906020019092919050505061007c620151804261015c60201b6103d81790919060201c565b600281905550836000819055508260068190555081600360006101000a81548173ffffffffffffffffffffffffffffffffffffffff021916908373ffffffffffffffffffffffffffffffffffffffff16021790555080600560006101000a81548173ffffffffffffffffffffffffffffffffffffffff021916908373ffffffffffffffffffffffffffffffffffffffff16021790555080600460006101000a81548173ffffffffffffffffffffffffffffffffffffffff021916908373ffffffffffffffffffffffffffffffffffffffff160217905550505050506101e4565b6000808284019050838110156101da576040517f08c379a000000000000000000000000000000000000000000000000000000000815260040180806020018281038252601b8152602001807f536166654d6174683a206164646974696f6e206f766572666c6f77000000000081525060200191505060405180910390fd5b8091505092915050565b61054a806101f36000396000f3fe60806040526004361061003f5760003560e01c806312065fe0146100445780634bb278f31461006f5780634e69d56014610086578063dacefe3a146100bf575b600080fd5b34801561005057600080fd5b506100596100c9565b6040518082815260200191505060405180910390f35b34801561007b57600080fd5b506100846100d1565b005b34801561009257600080fd5b5061009b610257565b604051808260028111156100ab57fe5b60ff16815260200191505060405180910390f35b6100c7610273565b005b600047905090565b600560009054906101000a900473ffffffffffffffffffffffffffffffffffffffff1673ffffffffffffffffffffffffffffffffffffffff16635eea28e7600654600760009054906101000a900460ff166040518363ffffffff1660e01b8152600401808381526020018215151515815260200192505050600060405180830381600087803b15801561016357600080fd5b505af1158015610177573d6000803e3d6000fd5b50505050600760009054906101000a900460ff16156101d8577f55e6e0ad23f3915f7dd551eed73e71e0e84fa3655f207c4b064fc0166b93cf0a600654600154604051808381526020018281526020019250505060405180910390a161021c565b7f6eaf533c5e2ee08d718e11123241f0f8cefffa2eb14648e28217dffaed4d7ec0600654600154604051808381526020018281526020019250505060405180910390a15b600460009054906101000a900473ffffffffffffffffffffffffffffffffffffffff1673ffffffffffffffffffffffffffffffffffffffff16ff5b600060025442111561026c5761026b6100d1565b5b6000905090565b600360009054906101000a900473ffffffffffffffffffffffffffffffffffffffff1673ffffffffffffffffffffffffffffffffffffffff163373ffffffffffffffffffffffffffffffffffffffff16146102cd57600080fd5b600060028111156102da57fe5b6102e2610257565b60028111156102ed57fe5b146102f757600080fd5b600061030e346001546103d890919063ffffffff16565b9050600054811061036257600054811115610331576103306000548203610460565b5b6000546001819055506001600760006101000a81548160ff02191690831515021790555061035d6100d1565b61036a565b806001819055505b7fd4f43975feb89f48dd30cabbb32011045be187d1e11c8ea9faa43efc352825193334604051808373ffffffffffffffffffffffffffffffffffffffff1673ffffffffffffffffffffffffffffffffffffffff1681526020018281526020019250505060405180910390a150565b600080828401905083811015610456576040517f08c379a000000000000000000000000000000000000000000000000000000000815260040180806020018281038252601b8152602001807f536166654d6174683a206164646974696f6e206f766572666c6f77000000000081525060200191505060405180910390fd5b8091505092915050565b3373ffffffffffffffffffffffffffffffffffffffff166108fc829081150290604051600060405180830381858888f193505050501580156104a6573d6000803e3d6000fd5b507fbb28353e4598c3b9199101a66e0989549b659a59a54d2c27fbb183f1932c8e6d3382604051808373ffffffffffffffffffffffffffffffffffffffff1673ffffffffffffffffffffffffffffffffffffffff1681526020018281526020019250505060405180910390a15056fea265627a7a72315820e59cd7faa74b932c9f4bc299294f6871c3a2a47a6a9e833567f0ee766830effa64736f6c63430005100032536166654d6174683a206d756c7469706c69636174696f6e206f766572666c6f77a265627a7a7231582076239a61db6596351916d5c76c15a2afa5037936a551045136843529096b7e5064736f6c63430005100032",
  "source": "pragma solidity < 0.8.0;\n\nimport \"./Libs/SafeMath.sol\";\nimport \"./Invoice.sol\";\ncontract BigPurchase{\n\n    using SafeMath for uint256;\n\n    event ProductAdded(string name, uint price, uint amount, uint treshold);\n    event AwaitingPayment(string name, uint amount, uint price, uint InvoiceNumber);\n    event ProductRunOut(string name);\n\n    struct Product{\n        uint Id;\n        string Name;\n        uint Price;\n        uint Amount;\n        uint Treshold;      //the quantity of the product, upon purchase of which the discount will be provided\n    }\n\n    address payable owner;\n\n    //list of Products, and list of their hashes\n    mapping(uint => Product) public Products;\n    mapping(bytes32 => uint) public ProductHashes;    \n    uint public ProductsCount;\n\n    mapping(uint => Invoice) public Invoices;\n    uint public InvoicesCount;\n\n    mapping(uint => Product) public ProductStash;   //we stash here products which was bought, but not payed yet\n\n    modifier OnlyOwner(){\n        require(msg.sender == owner);\n        _;\n    }\n    modifier OnlyOwnedInvoices(uint InvoiceNumber){\n        require(msg.sender == address(Invoices[InvoiceNumber]));\n        _;\n    }\n\n    constructor() public {\n        owner = msg.sender;\n        //addProduct(\"Apples\", 10, 20, 5);        //example position of 20 apples, discount will be made from 5 or more. Price of one apple is 10 units (value should be thought out)\n    }\n\n    function getHashedProduct(string memory _name, uint _price, uint _treshold) internal pure returns (bytes32){\n        return  keccak256(abi.encodePacked(_name))^\n                keccak256(abi.encodePacked(_price))^\n                keccak256(abi.encodePacked(_treshold));\n    }\n\n    function addProduct(string memory _name, uint _price, uint _amount, uint _treshold) public OnlyOwner {\n\n        require((bytes(_name).length > 0) && (_price > 0) && _amount > 0);\n        bytes32 hashedProduct = getHashedProduct(_name, _price, _treshold);\n\n        //if we have its hash in mapping, we get number of this product. If we dont, we add product hash to mapping, and create new product position.\n        if(ProductHashes[hashedProduct] == 0){\n            ProductsCount = ProductsCount.add(1);\n            ProductHashes[hashedProduct] = ProductsCount;\n            Products[ProductsCount] = Product(ProductsCount, _name, _price, _amount, _treshold);\n        } else {\n            Products[ProductHashes[hashedProduct]].Amount += _amount;   \n        }\n\n        emit ProductAdded(_name, _price, _amount, _treshold);\n    }\n\n    function buyProduct(uint ProductId, uint amount) public {\n        \n        require(ProductId <= ProductsCount);                        //checking if we gave right id of product\n        Product memory toBuy = Products[ProductId];\n        require(amount <= toBuy.Amount);                            //and if we have enough product\n              \n        uint TotalPrice;\n\n        if ((amount >= toBuy.Treshold) && (toBuy.Treshold != 0)){ \n            TotalPrice = (toBuy.Price.mul((amount.mul(95)))).div(100);         //making 5% discount, if purchase big enough\n        } else {\n            TotalPrice = toBuy.Price.mul(amount);\n        }\n\n        if(toBuy.Amount == amount){                                 //if all of supplied product was bought \n            delete(Products[ProductId]);\n            emit ProductRunOut(toBuy.Name);                          //later implement shifting id of elements, so there will be no gaps in mapping\n        } else {\n            Products[ProductId].Amount = Products[ProductId].Amount.sub(amount);\n        }\n        \n        InvoicesCount.add(1);                         //creating new invoice for customer to pay\n        Invoices[InvoicesCount] = new Invoice(TotalPrice, InvoicesCount, msg.sender, address(uint160(address(this))));\n        ProductStash[InvoicesCount] = toBuy;\n\n        emit AwaitingPayment(toBuy.Name, amount, TotalPrice, InvoicesCount);\n    } \n\n    function finalizeInvoice(uint InvoiceNumber, bool allPayed) \n    public \n    OnlyOwnedInvoices(InvoiceNumber)                    //this function called only from created invoices \n    {\n        if(allPayed){                                   //Invoice payed, remove product from stash, closing deal   \n            delete(Invoices[InvoiceNumber]);\n            delete(ProductStash[InvoiceNumber]);     \n        } else {                                        //Invoice was not payed, we return product back on market\n            Product memory toReturn = ProductStash[InvoiceNumber];\n            addProduct(toReturn.Name, toReturn.Price, toReturn.Amount, toReturn.Treshold);\n            \n            delete(Invoices[InvoiceNumber]);\n            delete(ProductStash[InvoiceNumber]);\n        }\n    }\n}",
  "sourcePath": "/home/alexey/Repos/BigPurchase/contracts/BigPurchase.sol",
  "compiler": {
    "name": "solc",
    "version": "0.5.16+commit.9c3226ce.Emscripten.clang"
  },
  "schemaVersion": "3.3.2",
  "updatedAt": "2021-01-08T19:00:01.365Z",
  "networkType": "ethereum",
  "devdoc": {
    "methods": {}
  },
  "userdoc": {
    "methods": {}
  }
}