{
  "contractName": "BigPurchase",
  "abi": [
    {
      "inputs": [],
      "payable": false,
      "stateMutability": "nonpayable",
      "type": "constructor"
    },
    {
      "anonymous": false,
      "inputs": [
        {
          "indexed": false,
          "internalType": "string",
          "name": "name",
          "type": "string"
        },
        {
          "indexed": false,
          "internalType": "uint256",
          "name": "amount",
          "type": "uint256"
        },
        {
          "indexed": false,
          "internalType": "uint256",
          "name": "price",
          "type": "uint256"
        },
        {
          "indexed": false,
          "internalType": "uint256",
          "name": "InvoiceNumber",
          "type": "uint256"
        }
      ],
      "name": "AwaitingPayment",
      "type": "event"
    },
    {
      "anonymous": false,
      "inputs": [
        {
          "indexed": false,
          "internalType": "string",
          "name": "name",
          "type": "string"
        },
        {
          "indexed": false,
          "internalType": "uint256",
          "name": "price",
          "type": "uint256"
        },
        {
          "indexed": false,
          "internalType": "uint256",
          "name": "amount",
          "type": "uint256"
        },
        {
          "indexed": false,
          "internalType": "uint256",
          "name": "treshold",
          "type": "uint256"
        }
      ],
      "name": "ProductAdded",
      "type": "event"
    },
    {
      "anonymous": false,
      "inputs": [
        {
          "indexed": false,
          "internalType": "string",
          "name": "name",
          "type": "string"
        }
      ],
      "name": "ProductRunOut",
      "type": "event"
    },
    {
      "constant": true,
      "inputs": [
        {
          "internalType": "uint256",
          "name": "",
          "type": "uint256"
        }
      ],
      "name": "Invoices",
      "outputs": [
        {
          "internalType": "contract Invoice",
          "name": "",
          "type": "address"
        }
      ],
      "payable": false,
      "stateMutability": "view",
      "type": "function"
    },
    {
      "constant": true,
      "inputs": [],
      "name": "InvoicesCount",
      "outputs": [
        {
          "internalType": "uint256",
          "name": "",
          "type": "uint256"
        }
      ],
      "payable": false,
      "stateMutability": "view",
      "type": "function"
    },
    {
      "constant": true,
      "inputs": [
        {
          "internalType": "uint256",
          "name": "",
          "type": "uint256"
        }
      ],
      "name": "ProductStash",
      "outputs": [
        {
          "internalType": "uint256",
          "name": "Id",
          "type": "uint256"
        },
        {
          "internalType": "string",
          "name": "Name",
          "type": "string"
        },
        {
          "internalType": "uint256",
          "name": "Price",
          "type": "uint256"
        },
        {
          "internalType": "uint256",
          "name": "Amount",
          "type": "uint256"
        },
        {
          "internalType": "uint256",
          "name": "Treshold",
          "type": "uint256"
        }
      ],
      "payable": false,
      "stateMutability": "view",
      "type": "function"
    },
    {
      "constant": true,
      "inputs": [
        {
          "internalType": "uint256",
          "name": "",
          "type": "uint256"
        }
      ],
      "name": "Products",
      "outputs": [
        {
          "internalType": "uint256",
          "name": "Id",
          "type": "uint256"
        },
        {
          "internalType": "string",
          "name": "Name",
          "type": "string"
        },
        {
          "internalType": "uint256",
          "name": "Price",
          "type": "uint256"
        },
        {
          "internalType": "uint256",
          "name": "Amount",
          "type": "uint256"
        },
        {
          "internalType": "uint256",
          "name": "Treshold",
          "type": "uint256"
        }
      ],
      "payable": false,
      "stateMutability": "view",
      "type": "function"
    },
    {
      "constant": true,
      "inputs": [],
      "name": "ProductsCount",
      "outputs": [
        {
          "internalType": "uint256",
          "name": "",
          "type": "uint256"
        }
      ],
      "payable": false,
      "stateMutability": "view",
      "type": "function"
    },
    {
      "constant": false,
      "inputs": [
        {
          "internalType": "string",
          "name": "_name",
          "type": "string"
        },
        {
          "internalType": "uint256",
          "name": "_price",
          "type": "uint256"
        },
        {
          "internalType": "uint256",
          "name": "_amount",
          "type": "uint256"
        },
        {
          "internalType": "uint256",
          "name": "_treshold",
          "type": "uint256"
        }
      ],
      "name": "addProduct",
      "outputs": [],
      "payable": false,
      "stateMutability": "nonpayable",
      "type": "function"
    },
    {
      "constant": false,
      "inputs": [
        {
          "internalType": "uint256",
          "name": "ProductId",
          "type": "uint256"
        },
        {
          "internalType": "uint256",
          "name": "amount",
          "type": "uint256"
        }
      ],
      "name": "buyProduct",
      "outputs": [],
      "payable": false,
      "stateMutability": "nonpayable",
      "type": "function"
    },
    {
      "constant": false,
      "inputs": [
        {
          "internalType": "uint256",
          "name": "InvoiceNumber",
          "type": "uint256"
        },
        {
          "internalType": "bool",
          "name": "allPayed",
          "type": "bool"
        }
      ],
      "name": "finalizeInvoice",
      "outputs": [],
      "payable": false,
      "stateMutability": "nonpayable",
      "type": "function"
    }
  ],
  "bytecode": "0x60806040523480156200001157600080fd5b50336000806101000a81548173ffffffffffffffffffffffffffffffffffffffff021916908373ffffffffffffffffffffffffffffffffffffffff1602179055506200009e6040518060400160405280600681526020017f4170706c65730000000000000000000000000000000000000000000000000000815250600a60146005620000a460201b60201c565b6200056e565b6000809054906101000a900473ffffffffffffffffffffffffffffffffffffffff1673ffffffffffffffffffffffffffffffffffffffff163373ffffffffffffffffffffffffffffffffffffffff1614620000fe57600080fd5b6000809050600160025410620002c65760008090505b6002548111620002c4578460016000838152602001908152602001600020600201541415620002a2578260016000838152602001908152602001600020600401541415620002a157856040516020018082805190602001908083835b6020831062000195578051825260208201915060208101905060208303925062000170565b6001836020036101000a03801982511681845116808217855250505050505090500191505060405160208183030381529060405280519060200120600160008381526020019081526020016000206001016040516020018082805460018160011615610100020316600290048015620002485780601f106200022557610100808354040283529182019162000248565b820191906000526020600020905b81548152906001019060200180831162000233575b5050915050604051602081830303815290604052805190602001201415620002a0576200029a8460016000848152602001908152602001600020600301546200043660201b620011371790919060201c565b50600191505b5b5b620002bd6001826200043660201b620011371790919060201c565b5062000114565b505b806200037857620002e960016002546200043660201b620011371790919060201c565b6002819055506040518060a0016040528060025481526020018681526020018581526020018481526020018381525060016000600254815260200190815260200160002060008201518160000155602082015181600101908051906020019062000355929190620004bf565b506040820151816002015560608201518160030155608082015181600401559050505b7f9ddd3dd44e5393e7babcc1912d120d2d687d9b6402bce4423d9b050281b4f365858585856040518080602001858152602001848152602001838152602001828103825286818151815260200191508051906020019080838360005b83811015620003f1578082015181840152602081019050620003d4565b50505050905090810190601f1680156200041f5780820380516001836020036101000a031916815260200191505b509550505050505060405180910390a15050505050565b600080828401905083811015620004b5576040517f08c379a000000000000000000000000000000000000000000000000000000000815260040180806020018281038252601b8152602001807f536166654d6174683a206164646974696f6e206f766572666c6f77000000000081525060200191505060405180910390fd5b8091505092915050565b828054600181600116156101000203166002900490600052602060002090601f016020900481019282601f106200050257805160ff191683800117855562000533565b8280016001018555821562000533579182015b828111156200053257825182559160200191906001019062000515565b5b50905062000542919062000546565b5090565b6200056b91905b80821115620005675760008160009055506001016200054d565b5090565b90565b611d3d806200057e6000396000f3fe60806040523480156200001157600080fd5b5060043610620000945760003560e01c80635eea28e711620000635780635eea28e7146200029c5780635ef3fc6114620002d9578063d10876f4146200034a578063dba3f6aa146200036a5762000094565b8063094455c4146200009957806326dd8d5214620001785780634a65ad48146200024157806353b628661462000261575b600080fd5b6200017660048036036080811015620000b157600080fd5b8101908080359060200190640100000000811115620000cf57600080fd5b820183602082011115620000e257600080fd5b803590602001918460018302840111640100000000831117156200010557600080fd5b91908080601f016020809104026020016040519081016040528093929190818152602001838380828437600081840152601f19601f82011690508083019250505050505050919291929080359060200190929190803590602001909291908035906020019092919050505062000433565b005b620001a7600480360360208110156200019057600080fd5b8101908080359060200190929190505050620007b6565b6040518086815260200180602001858152602001848152602001838152602001828103825286818151815260200191508051906020019080838360005b8381101562000201578082015181840152602081019050620001e4565b50505050905090810190601f1680156200022f5780820380516001836020036101000a031916815260200191505b50965050505050505060405180910390f35b6200024b62000888565b6040518082815260200191505060405180910390f35b6200029a600480360360408110156200027957600080fd5b8101908080359060200190929190803590602001909291905050506200088e565b005b620002d760048036036040811015620002b457600080fd5b810190808035906020019092919080351515906020019092919050505062000d99565b005b6200030860048036036020811015620002f157600080fd5b81019080803590602001909291905050506200102c565b604051808273ffffffffffffffffffffffffffffffffffffffff1673ffffffffffffffffffffffffffffffffffffffff16815260200191505060405180910390f35b620003546200105f565b6040518082815260200191505060405180910390f35b62000399600480360360208110156200038257600080fd5b810190808035906020019092919050505062001065565b6040518086815260200180602001858152602001848152602001838152602001828103825286818151815260200191508051906020019080838360005b83811015620003f3578082015181840152602081019050620003d6565b50505050905090810190601f168015620004215780820380516001836020036101000a031916815260200191505b50965050505050505060405180910390f35b6000809054906101000a900473ffffffffffffffffffffffffffffffffffffffff1673ffffffffffffffffffffffffffffffffffffffff163373ffffffffffffffffffffffffffffffffffffffff16146200048d57600080fd5b60008090506001600254106200064b5760008090505b6002548111620006495784600160008381526020019081526020016000206002015414156200062c5782600160008381526020019081526020016000206004015414156200062b57856040516020018082805190602001908083835b60208310620005245780518252602082019150602081019050602083039250620004ff565b6001836020036101000a03801982511681845116808217855250505050505090500191505060405160208183030381529060405280519060200120600160008381526020019081526020016000206001016040516020018082805460018160011615610100020316600290048015620005d75780601f10620005b4576101008083540402835291820191620005d7565b820191906000526020600020905b815481529060010190602001808311620005c2575b50509150506040516020818303038152906040528051906020012014156200062a57620006248460016000848152602001908152602001600020600301546200113790919063ffffffff16565b50600191505b5b5b620006426001826200113790919063ffffffff16565b50620004a3565b505b80620006f8576200066960016002546200113790919063ffffffff16565b6002819055506040518060a00160405280600254815260200186815260200185815260200184815260200183815250600160006002548152602001908152602001600020600082015181600001556020820151816001019080519060200190620006d592919062001472565b506040820151816002015560608201518160030155608082015181600401559050505b7f9ddd3dd44e5393e7babcc1912d120d2d687d9b6402bce4423d9b050281b4f365858585856040518080602001858152602001848152602001838152602001828103825286818151815260200191508051906020019080838360005b838110156200077157808201518184015260208101905062000754565b50505050905090810190601f1680156200079f5780820380516001836020036101000a031916815260200191505b509550505050505060405180910390a15050505050565b6005602052806000526040600020600091509050806000015490806001018054600181600116156101000203166002900480601f0160208091040260200160405190810160405280929190818152602001828054600181600116156101000203166002900480156200086c5780601f1062000840576101008083540402835291602001916200086c565b820191906000526020600020905b8154815290600101906020018083116200084e57829003601f168201915b5050505050908060020154908060030154908060040154905085565b60045481565b6002548211156200089e57600080fd5b620008a8620014f9565b600160008481526020019081526020016000206040518060a001604052908160008201548152602001600182018054600181600116156101000203166002900480601f0160208091040260200160405190810160405280929190818152602001828054600181600116156101000203166002900480156200096d5780601f1062000941576101008083540402835291602001916200096d565b820191906000526020600020905b8154815290600101906020018083116200094f57829003601f168201915b50505050508152602001600282015481526020016003820154815260200160048201548152505090508060600151821115620009a857600080fd5b60008160800151831062000a0157620009f96064620009ea620009d6605f87620011c090919063ffffffff16565b8560400151620011c090919063ffffffff16565b6200124b90919063ffffffff16565b905062000a1d565b62000a1a838360400151620011c090919063ffffffff16565b90505b828260600151141562000b1b576001600085815260200190815260200160002060008082016000905560018201600062000a58919062001528565b60028201600090556003820160009055600482016000905550507fe14bc0b8e47c217f9c12a0c4e4412be5ccf5e1960013637365f2f4a381d16f3c82602001516040518080602001828103825283818151815260200191508051906020019080838360005b8381101562000ada57808201518184015260208101905062000abd565b50505050905090810190601f16801562000b085780820380516001836020036101000a031916815260200191505b509250505060405180910390a162000b61565b62000b468360016000878152602001908152602001600020600301546200129790919063ffffffff16565b60016000868152602001908152602001600020600301819055505b62000b7960016004546200113790919063ffffffff16565b5080600454333060405162000b8e9062001574565b808581526020018481526020018373ffffffffffffffffffffffffffffffffffffffff1673ffffffffffffffffffffffffffffffffffffffff1681526020018273ffffffffffffffffffffffffffffffffffffffff1673ffffffffffffffffffffffffffffffffffffffff168152602001945050505050604051809103906000f08015801562000c22573d6000803e3d6000fd5b5060036000600454815260200190815260200160002060006101000a81548173ffffffffffffffffffffffffffffffffffffffff021916908373ffffffffffffffffffffffffffffffffffffffff1602179055508160056000600454815260200190815260200160002060008201518160000155602082015181600101908051906020019062000cb492919062001472565b506040820151816002015560608201518160030155608082015181600401559050507f064b142f50d5fc70b08210372fc5114d1124eff1f92ae312c4b22d176853c74f826020015184836004546040518080602001858152602001848152602001838152602001828103825286818151815260200191508051906020019080838360005b8381101562000d5557808201518184015260208101905062000d38565b50505050905090810190601f16801562000d835780820380516001836020036101000a031916815260200191505b509550505050505060405180910390a150505050565b816003600082815260200190815260200160002060009054906101000a900473ffffffffffffffffffffffffffffffffffffffff1673ffffffffffffffffffffffffffffffffffffffff163373ffffffffffffffffffffffffffffffffffffffff161462000e0657600080fd5b811562000e91576003600084815260200190815260200160002060006101000a81549073ffffffffffffffffffffffffffffffffffffffff02191690556005600084815260200190815260200160002060008082016000905560018201600062000e71919062001528565b600282016000905560038201600090556004820160009055505062001027565b62000e9b620014f9565b600560008581526020019081526020016000206040518060a001604052908160008201548152602001600182018054600181600116156101000203166002900480601f01602080910402602001604051908101604052809291908181526020018280546001816001161561010002031660029004801562000f605780601f1062000f345761010080835404028352916020019162000f60565b820191906000526020600020905b81548152906001019060200180831162000f4257829003601f168201915b505050505081526020016002820154815260200160038201548152602001600482015481525050905062000fa7816020015182604001518360600151846080015162000433565b6003600085815260200190815260200160002060006101000a81549073ffffffffffffffffffffffffffffffffffffffff0219169055600560008581526020019081526020016000206000808201600090556001820160006200100b919062001528565b6002820160009055600382016000905560048201600090555050505b505050565b60036020528060005260406000206000915054906101000a900473ffffffffffffffffffffffffffffffffffffffff1681565b60025481565b6001602052806000526040600020600091509050806000015490806001018054600181600116156101000203166002900480601f0160208091040260200160405190810160405280929190818152602001828054600181600116156101000203166002900480156200111b5780601f10620010ef576101008083540402835291602001916200111b565b820191906000526020600020905b815481529060010190602001808311620010fd57829003601f168201915b5050505050908060020154908060030154908060040154905085565b600080828401905083811015620011b6576040517f08c379a000000000000000000000000000000000000000000000000000000000815260040180806020018281038252601b8152602001807f536166654d6174683a206164646974696f6e206f766572666c6f77000000000081525060200191505060405180910390fd5b8091505092915050565b600080831415620011d5576000905062001245565b6000828402905082848281620011e757fe5b041462001240576040517f08c379a000000000000000000000000000000000000000000000000000000000815260040180806020018281038252602181526020018062001ce86021913960400191505060405180910390fd5b809150505b92915050565b60006200128f83836040518060400160405280601a81526020017f536166654d6174683a206469766973696f6e206279207a65726f000000000000815250620012e3565b905092915050565b6000620012db83836040518060400160405280601e81526020017f536166654d6174683a207375627472616374696f6e206f766572666c6f770000815250620013ae565b905092915050565b6000808311829062001393576040517f08c379a00000000000000000000000000000000000000000000000000000000081526004018080602001828103825283818151815260200191508051906020019080838360005b83811015620013575780820151818401526020810190506200133a565b50505050905090810190601f168015620013855780820380516001836020036101000a031916815260200191505b509250505060405180910390fd5b506000838581620013a057fe5b049050809150509392505050565b60008383111582906200145f576040517f08c379a00000000000000000000000000000000000000000000000000000000081526004018080602001828103825283818151815260200191508051906020019080838360005b838110156200142357808201518184015260208101905062001406565b50505050905090810190601f168015620014515780820380516001836020036101000a031916815260200191505b509250505060405180910390fd5b5060008385039050809150509392505050565b828054600181600116156101000203166002900490600052602060002090601f016020900481019282601f10620014b557805160ff1916838001178555620014e6565b82800160010185558215620014e6579182015b82811115620014e5578251825591602001919060010190620014c8565b5b509050620014f5919062001582565b5090565b6040518060a0016040528060008152602001606081526020016000815260200160008152602001600081525090565b50805460018160011615610100020316600290046000825580601f1062001550575062001571565b601f01602090049060005260206000209081019062001570919062001582565b5b50565b61073d80620015ab83390190565b620015a791905b80821115620015a357600081600090555060010162001589565b5090565b9056fe608060405234801561001057600080fd5b5060405161073d38038061073d8339818101604052608081101561003357600080fd5b810190808051906020019092919080519060200190929190805190602001909291908051906020019092919050505061007c620151804261015c60201b6103d81790919060201c565b600281905550836000819055508260068190555081600360006101000a81548173ffffffffffffffffffffffffffffffffffffffff021916908373ffffffffffffffffffffffffffffffffffffffff16021790555080600560006101000a81548173ffffffffffffffffffffffffffffffffffffffff021916908373ffffffffffffffffffffffffffffffffffffffff16021790555080600460006101000a81548173ffffffffffffffffffffffffffffffffffffffff021916908373ffffffffffffffffffffffffffffffffffffffff160217905550505050506101e4565b6000808284019050838110156101da576040517f08c379a000000000000000000000000000000000000000000000000000000000815260040180806020018281038252601b8152602001807f536166654d6174683a206164646974696f6e206f766572666c6f77000000000081525060200191505060405180910390fd5b8091505092915050565b61054a806101f36000396000f3fe60806040526004361061003f5760003560e01c806312065fe0146100445780634bb278f31461006f5780634e69d56014610086578063dacefe3a146100bf575b600080fd5b34801561005057600080fd5b506100596100c9565b6040518082815260200191505060405180910390f35b34801561007b57600080fd5b506100846100d1565b005b34801561009257600080fd5b5061009b610257565b604051808260028111156100ab57fe5b60ff16815260200191505060405180910390f35b6100c7610273565b005b600047905090565b600560009054906101000a900473ffffffffffffffffffffffffffffffffffffffff1673ffffffffffffffffffffffffffffffffffffffff16635eea28e7600654600760009054906101000a900460ff166040518363ffffffff1660e01b8152600401808381526020018215151515815260200192505050600060405180830381600087803b15801561016357600080fd5b505af1158015610177573d6000803e3d6000fd5b50505050600760009054906101000a900460ff16156101d8577f55e6e0ad23f3915f7dd551eed73e71e0e84fa3655f207c4b064fc0166b93cf0a600654600154604051808381526020018281526020019250505060405180910390a161021c565b7f6eaf533c5e2ee08d718e11123241f0f8cefffa2eb14648e28217dffaed4d7ec0600654600154604051808381526020018281526020019250505060405180910390a15b600460009054906101000a900473ffffffffffffffffffffffffffffffffffffffff1673ffffffffffffffffffffffffffffffffffffffff16ff5b600060025442111561026c5761026b6100d1565b5b6000905090565b600360009054906101000a900473ffffffffffffffffffffffffffffffffffffffff1673ffffffffffffffffffffffffffffffffffffffff163373ffffffffffffffffffffffffffffffffffffffff16146102cd57600080fd5b600060028111156102da57fe5b6102e2610257565b60028111156102ed57fe5b146102f757600080fd5b600061030e346001546103d890919063ffffffff16565b9050600054811061036257600054811115610331576103306000548203610460565b5b6000546001819055506001600760006101000a81548160ff02191690831515021790555061035d6100d1565b61036a565b806001819055505b7fd4f43975feb89f48dd30cabbb32011045be187d1e11c8ea9faa43efc352825193334604051808373ffffffffffffffffffffffffffffffffffffffff1673ffffffffffffffffffffffffffffffffffffffff1681526020018281526020019250505060405180910390a150565b600080828401905083811015610456576040517f08c379a000000000000000000000000000000000000000000000000000000000815260040180806020018281038252601b8152602001807f536166654d6174683a206164646974696f6e206f766572666c6f77000000000081525060200191505060405180910390fd5b8091505092915050565b3373ffffffffffffffffffffffffffffffffffffffff166108fc829081150290604051600060405180830381858888f193505050501580156104a6573d6000803e3d6000fd5b507fbb28353e4598c3b9199101a66e0989549b659a59a54d2c27fbb183f1932c8e6d3382604051808373ffffffffffffffffffffffffffffffffffffffff1673ffffffffffffffffffffffffffffffffffffffff1681526020018281526020019250505060405180910390a15056fea265627a7a72315820abfd6c59b3af1c531dff8ccd1bb5835f086fe2a9a551c65bfaa8ca54ab4c167264736f6c63430005100032536166654d6174683a206d756c7469706c69636174696f6e206f766572666c6f77a265627a7a7231582096a7ad00cb37430038a28bf0280ebde43a6021ff997a07bd4b6846a2e5e42ae164736f6c63430005100032",
  "source": "pragma solidity < 0.8.0;\n\nimport \"./Libs/SafeMath.sol\";\nimport \"./Invoice.sol\";\ncontract BigPurchase{\n\n    using SafeMath for uint256;\n\n    event ProductAdded(string name, uint price, uint amount, uint treshold);\n    event AwaitingPayment(string name, uint amount, uint price, uint InvoiceNumber);\n    event ProductRunOut(string name);\n\n    struct Product{\n        uint Id;\n        string Name;\n        uint Price;\n        uint Amount;\n        uint Treshold;      //the quantity of the product, upon purchase of which the discount will be provided\n    }\n\n    address payable owner;\n\n    //list of Products\n    mapping(uint => Product) public Products;\n    uint public ProductsCount;\n\n    mapping(uint => Invoice) public Invoices;\n    uint public InvoicesCount;\n\n    mapping(uint => Product) public ProductStash;   //we stash here products which was bought, but not payed yet\n\n    modifier OnlyOwner(){\n        require(msg.sender == owner);\n        _;\n    }\n    modifier OnlyOwnedInvoices(uint InvoiceNumber){\n        require(msg.sender == address(Invoices[InvoiceNumber]));\n        _;\n    }\n\n    constructor() public {\n        owner = msg.sender;\n        addProduct(\"Apples\", 10, 20, 5);        //we make position of 20 apples, discount will be made from 5 or more. Price of one apple 10 finney (value should be thought out)\n    }\n\n    function addProduct(string memory _name, uint _price, uint _amount, uint _treshold) public OnlyOwner {\n        bool productExist = false;\n        if(ProductsCount >= 1 )\n            for(uint a = 0; a<= ProductsCount; a.add(1)){       //if we already have same product with same price, we add new product to existing\n                if(Products[a].Price == _price)\n                    if(Products[a].Treshold == _treshold)\n                        if(keccak256(abi.encodePacked(Products[a].Name)) == keccak256(abi.encodePacked(_name))){\n                            Products[a].Amount.add(_amount);        //we cant compare strings directly, so compare their hashes\n                            productExist = true;\n                        }\n            }\n\n        if(!productExist){\n            ProductsCount = ProductsCount.add(1);\n            Products[ProductsCount] = Product(ProductsCount, _name, _price, _amount, _treshold);\n        }\n\n        emit ProductAdded(_name, _price, _amount, _treshold);\n    }\n\n    function buyProduct(uint ProductId, uint amount) public {\n        \n        require(ProductId <= ProductsCount);                        //checking if we gave right id of product\n        Product memory toBuy = Products[ProductId];\n        require(amount <= toBuy.Amount);                            //and if we have enough product\n              \n        uint TotalPrice;\n\n        if (amount >= toBuy.Treshold){ \n            TotalPrice = (toBuy.Price.mul((amount.mul(95)))).div(100);         //making 5% discount, if purchase big enough\n        } else {\n            TotalPrice = toBuy.Price.mul(amount);\n        }\n\n        if(toBuy.Amount == amount){                                 //if all of supplied product was bought \n            delete(Products[ProductId]);\n            emit ProductRunOut(toBuy.Name);                          //later implement shifting id of elements, so there will be no gaps in mapping\n        } else {\n            Products[ProductId].Amount =Products[ProductId].Amount.sub(amount);\n        }\n        \n        InvoicesCount.add(1);\n        Invoices[InvoicesCount] = new Invoice(TotalPrice, InvoicesCount, msg.sender, address(uint160(address(this))));\n        ProductStash[InvoicesCount] = toBuy;\n        emit AwaitingPayment(toBuy.Name, amount, TotalPrice, InvoicesCount);\n    } \n    function finalizeInvoice(uint InvoiceNumber, bool allPayed) \n    public \n    OnlyOwnedInvoices(InvoiceNumber)                //this function called only from created invoices \n    {\n        if(allPayed){\n            delete(Invoices[InvoiceNumber]);\n            delete(ProductStash[InvoiceNumber]);\n        } else {                                     //Invoice was not payed, we return product back on market\n            Product memory toReturn = ProductStash[InvoiceNumber];\n            addProduct(toReturn.Name, toReturn.Price, toReturn.Amount, toReturn.Treshold);\n            \n            delete(Invoices[InvoiceNumber]);\n            delete(ProductStash[InvoiceNumber]);\n        }\n    }\n}",
  "sourcePath": "/home/alexey/Repos/election/contracts/BigPurchase.sol",
  "compiler": {
    "name": "solc",
    "version": "0.5.16+commit.9c3226ce.Emscripten.clang"
  },
  "schemaVersion": "3.3.2",
  "updatedAt": "2021-01-04T16:20:11.633Z",
  "networkType": "ethereum",
  "devdoc": {
    "methods": {}
  },
  "userdoc": {
    "methods": {}
  }
}