{
  "contractName": "Invoice",
  "abi": [
    {
      "inputs": [
        {
          "internalType": "uint256",
          "name": "_invoiceAmount",
          "type": "uint256"
        },
        {
          "internalType": "uint256",
          "name": "_InvoiceNumber",
          "type": "uint256"
        },
        {
          "internalType": "address",
          "name": "_payer",
          "type": "address"
        },
        {
          "internalType": "address payable",
          "name": "_main",
          "type": "address"
        }
      ],
      "payable": false,
      "stateMutability": "nonpayable",
      "type": "constructor"
    },
    {
      "anonymous": false,
      "inputs": [
        {
          "indexed": false,
          "internalType": "address",
          "name": "from",
          "type": "address"
        },
        {
          "indexed": false,
          "internalType": "uint256",
          "name": "amount",
          "type": "uint256"
        }
      ],
      "name": "Payment",
      "type": "event"
    },
    {
      "anonymous": false,
      "inputs": [
        {
          "indexed": false,
          "internalType": "uint256",
          "name": "InvoiceNumber",
          "type": "uint256"
        },
        {
          "indexed": false,
          "internalType": "uint256",
          "name": "amount",
          "type": "uint256"
        }
      ],
      "name": "PaymentComplete",
      "type": "event"
    },
    {
      "anonymous": false,
      "inputs": [
        {
          "indexed": false,
          "internalType": "uint256",
          "name": "InvoiceNumber",
          "type": "uint256"
        },
        {
          "indexed": false,
          "internalType": "uint256",
          "name": "paidAmount",
          "type": "uint256"
        }
      ],
      "name": "PaymentRunOut",
      "type": "event"
    },
    {
      "anonymous": false,
      "inputs": [
        {
          "indexed": false,
          "internalType": "address",
          "name": "receiver",
          "type": "address"
        },
        {
          "indexed": false,
          "internalType": "uint256",
          "name": "amount",
          "type": "uint256"
        }
      ],
      "name": "Refund",
      "type": "event"
    },
    {
      "constant": true,
      "inputs": [],
      "name": "invoiceAmount",
      "outputs": [
        {
          "internalType": "uint256",
          "name": "",
          "type": "uint256"
        }
      ],
      "payable": false,
      "stateMutability": "view",
      "type": "function"
    },
    {
      "constant": true,
      "inputs": [],
      "name": "GetInvoiceAmount",
      "outputs": [
        {
          "internalType": "uint256",
          "name": "",
          "type": "uint256"
        }
      ],
      "payable": false,
      "stateMutability": "view",
      "type": "function"
    },
    {
      "constant": true,
      "inputs": [],
      "name": "getBalance",
      "outputs": [
        {
          "internalType": "uint256",
          "name": "",
          "type": "uint256"
        }
      ],
      "payable": false,
      "stateMutability": "view",
      "type": "function"
    },
    {
      "constant": false,
      "inputs": [],
      "name": "getStatus",
      "outputs": [
        {
          "internalType": "enum Invoice.Status",
          "name": "",
          "type": "uint8"
        }
      ],
      "payable": false,
      "stateMutability": "nonpayable",
      "type": "function"
    },
    {
      "constant": false,
      "inputs": [],
      "name": "PayProduct",
      "outputs": [],
      "payable": true,
      "stateMutability": "payable",
      "type": "function"
    },
    {
      "constant": false,
      "inputs": [],
      "name": "finalize",
      "outputs": [],
      "payable": false,
      "stateMutability": "nonpayable",
      "type": "function"
    }
  ],
  "bytecode": "0x608060405234801561001057600080fd5b506040516107b83803806107b88339818101604052608081101561003357600080fd5b810190808051906020019092919080519060200190929190805190602001909291908051906020019092919050505061007c620151804261015c60201b6104531790919060201c565b600281905550836000819055508260068190555081600360006101000a81548173ffffffffffffffffffffffffffffffffffffffff021916908373ffffffffffffffffffffffffffffffffffffffff16021790555080600560006101000a81548173ffffffffffffffffffffffffffffffffffffffff021916908373ffffffffffffffffffffffffffffffffffffffff16021790555080600460006101000a81548173ffffffffffffffffffffffffffffffffffffffff021916908373ffffffffffffffffffffffffffffffffffffffff160217905550505050506101e4565b6000808284019050838110156101da576040517f08c379a000000000000000000000000000000000000000000000000000000000815260040180806020018281038252601b8152602001807f536166654d6174683a206164646974696f6e206f766572666c6f77000000000081525060200191505060405180910390fd5b8091505092915050565b6105c5806101f36000396000f3fe6080604052600436106100555760003560e01c806312065fe01461005a5780634bb278f3146100855780634e69d5601461009c5780637478901d146100d5578063bf071a4b14610100578063dacefe3a1461012b575b600080fd5b34801561006657600080fd5b5061006f610135565b6040518082815260200191505060405180910390f35b34801561009157600080fd5b5061009a61013d565b005b3480156100a857600080fd5b506100b16102c3565b604051808260028111156100c157fe5b60ff16815260200191505060405180910390f35b3480156100e157600080fd5b506100ea6102df565b6040518082815260200191505060405180910390f35b34801561010c57600080fd5b506101156102e5565b6040518082815260200191505060405180910390f35b6101336102ee565b005b600047905090565b600560009054906101000a900473ffffffffffffffffffffffffffffffffffffffff1673ffffffffffffffffffffffffffffffffffffffff16635eea28e7600654600760009054906101000a900460ff166040518363ffffffff1660e01b8152600401808381526020018215151515815260200192505050600060405180830381600087803b1580156101cf57600080fd5b505af11580156101e3573d6000803e3d6000fd5b50505050600760009054906101000a900460ff1615610244577f55e6e0ad23f3915f7dd551eed73e71e0e84fa3655f207c4b064fc0166b93cf0a600654600154604051808381526020018281526020019250505060405180910390a1610288565b7f6eaf533c5e2ee08d718e11123241f0f8cefffa2eb14648e28217dffaed4d7ec0600654600154604051808381526020018281526020019250505060405180910390a15b600460009054906101000a900473ffffffffffffffffffffffffffffffffffffffff1673ffffffffffffffffffffffffffffffffffffffff16ff5b60006002544211156102d8576102d761013d565b5b6000905090565b60005481565b60008054905090565b600360009054906101000a900473ffffffffffffffffffffffffffffffffffffffff1673ffffffffffffffffffffffffffffffffffffffff163373ffffffffffffffffffffffffffffffffffffffff161461034857600080fd5b6000600281111561035557fe5b61035d6102c3565b600281111561036857fe5b1461037257600080fd5b60006103893460015461045390919063ffffffff16565b905060005481106103dd576000548111156103ac576103ab60005482036104db565b5b6000546001819055506001600760006101000a81548160ff0219169083151502179055506103d861013d565b6103e5565b806001819055505b7fd4f43975feb89f48dd30cabbb32011045be187d1e11c8ea9faa43efc352825193334604051808373ffffffffffffffffffffffffffffffffffffffff1673ffffffffffffffffffffffffffffffffffffffff1681526020018281526020019250505060405180910390a150565b6000808284019050838110156104d1576040517f08c379a000000000000000000000000000000000000000000000000000000000815260040180806020018281038252601b8152602001807f536166654d6174683a206164646974696f6e206f766572666c6f77000000000081525060200191505060405180910390fd5b8091505092915050565b3373ffffffffffffffffffffffffffffffffffffffff166108fc829081150290604051600060405180830381858888f19350505050158015610521573d6000803e3d6000fd5b507fbb28353e4598c3b9199101a66e0989549b659a59a54d2c27fbb183f1932c8e6d3382604051808373ffffffffffffffffffffffffffffffffffffffff1673ffffffffffffffffffffffffffffffffffffffff1681526020018281526020019250505060405180910390a15056fea265627a7a72315820f8010daf68c5cc32fb24b76d7fa553132e74122f9e9a0c33ec03cb9564c4e00964736f6c63430005100032",
  "source": "pragma solidity < 0.8.0;\n\nimport \"./Libs/SafeMath.sol\";\nimport \"./BigPurchase.sol\";\n\n    //This contract partially taken from \n    //https://github.com/smartzplatform/constructor-eth-invoice/blob/4a186dc8fc4da84dbcbc15114b7e6d1cc00f44cd/contracts/Invoice.sol\n    //and implements invoice creation for whoever buys products in contract.\ncontract Invoice {\n    using SafeMath for uint256;\n\n    enum Status { Active, Overdue, Paid }\n\n    event Refund(\n        address receiver,\n        uint256 amount\n    );\n\n    event Payment(\n        address from,\n        uint256 amount\n    );\n\n    event PaymentComplete(\n        uint256 InvoiceNumber,\n        uint256 amount\n    );\n\n    event PaymentRunOut(\n        uint256 InvoiceNumber,\n        uint256 paidAmount\n    );\n\n\n    uint256 public invoiceAmount;\n    function GetInvoiceAmount() public view returns (uint256){\n        return invoiceAmount;\n    }\n\n    uint256  paidAmount;\n    uint256  validityPeriod;\n    address  payer;\n    address payable mainAddress;\n    BigPurchase  mainContract;\n    uint InvoiceNumber;\n    bool allPayed;\n\n    constructor (\n        uint256 _invoiceAmount,\n        uint _InvoiceNumber,\n        address _payer,\n        address payable _main\n    ) public {\n        validityPeriod = block.timestamp.add(1 days);      //the invoice will be active for one day, after we shall revert operations\n        invoiceAmount = _invoiceAmount;\n        InvoiceNumber = _InvoiceNumber;\n        payer = _payer;\n        mainContract = BigPurchase(_main);\n        mainAddress = _main;\n    }\n\n    modifier onlyPayer() {\n        require(msg.sender == payer);\n        _;\n    }\n\n    function getBalance() public view returns (uint256) {\n        return address(this).balance;\n    }\n\n    function getStatus() public returns (Status) {\n        if (block.timestamp > validityPeriod){\n            finalize();\n        }\n        return Status.Active;\n    }\n\n    function doRefund(uint256 amount) internal {\n        msg.sender.transfer(amount);\n        emit Refund(msg.sender, amount);\n    }\n\n    function PayProduct() public payable onlyPayer {\n        require(getStatus() == Status.Active);\n\n        uint256 will = paidAmount.add(msg.value);\n\n        if (will >= invoiceAmount) {\n            if (will > invoiceAmount)\n                doRefund(will - invoiceAmount);\n\n            paidAmount = invoiceAmount;\n            allPayed = true;                    //we set this flag only here, marking payment complete\n            finalize();\n        } else {\n            paidAmount = will;\n        }\n\n        emit Payment(msg.sender, msg.value);\n    }\n    //this function tells main contract, that its finished or timed out. \n    function finalize() public {\n\n        mainContract.finalizeInvoice(InvoiceNumber, allPayed);\n        \n        if(allPayed)\n            emit PaymentComplete(InvoiceNumber, paidAmount);\n        else \n            emit PaymentRunOut(InvoiceNumber, paidAmount);\n\n        selfdestruct(mainAddress);      //transfer all received money to main contract\n    }\n}\n",
  "sourcePath": "/home/alexey/Repos/BigPurchase/contracts/Invoice.sol",
  "compiler": {
    "name": "solc",
    "version": "0.5.16+commit.9c3226ce.Emscripten.clang"
  },
  "schemaVersion": "3.3.2",
  "updatedAt": "2021-01-09T18:53:24.869Z",
  "devdoc": {
    "methods": {}
  },
  "userdoc": {
    "methods": {}
  }
}